:020000040800F2
:10000000A8FD0020C90E00081D0500081F050008F6
:1000100023050008270500082B0500080000000044
:100020000000000000000000000000002F05000894
:100030003105000800000000330500083505000800
:10004000E30E0008E30E0008E30E00084105000877
:10005000E30E0008E30E0008E30E0008E30E0008BC
:10006000E30E0008E30E0008E30E0008E30E0008AC
:10007000E30E0008E30E0008E30E0008E30E00089C
:10008000E30E0008E30E0008E30E0008E30E00088C
:10009000E30E0008E30E0008E30E0008E30E00087C
:1000A000E30E0008E30E0008E30E0008E30E00086C
:1000B000E30E0008E30E0008E30E0008E30E00085C
:1000C000E30E0008E30E0008E30E0008E30E00084C
:1000D000E30E00086B05000815060008A9060008D5
:1000E000E30E0008E30E0008E30E0008E30E00082C
:1000F000E30E0008E30E0008E30E0008E30E00081C
:10010000E30E000891530008E30E0008E30E000818
:10011000E30E0008E30E0008E30E0008E30E0008FB
:10012000E30E0008E30E0008E30E0008E30E0008EB
:10013000DFF80CD00BF06AFB0048004733020008E0
:10014000A8FD002008B50121042006F015FB0121BF
:10015000082006F011FB0121202006F00DFB0121F3
:10016000402006F009FB0121802006F005FB01215B
:10017000080206F001FB0121084606F0FDFA4FF4E3
:100180008070ADF8000010208DF8030003208DF87A
:1001900002006946CB4806F033F84FF48071C94835
:1001A00006F0DDF81020ADF800006946C64806F0FC
:1001B00027F81021C44806F0D2F80121102006F0DB
:1001C000DBFA4020ADF800006946C04806F018F898
:1001D0004021BE4806F0C3F84FF40040ADF80000DF
:1001E00004208DF803006946B94806F009F880201C
:1001F000ADF8000004208DF803006946B54805F00D
:10020000FFFF4FF47F40ADF800006946B14805F0AC
:10021000F7FF4FF40040ADF800006946AE4805F026
:10022000EFFF0320ADF800006946AC4805F0E8FF99
:1002300008BD002400250026012006F023FA7C20BA
:1002400002F017FAA64908605E22A649A6480BF0FC
:100250005BFA00BF612006F064F90028FAD045F28D
:10026000555007F053FB032007F053FB40F6FF7097
:1002700007F052FB07F053FB07F056FB7D2006F01A
:1002800050F9012803D09949994800F02CFD4FF40A
:100290007F700BF079FD9749086000F0DBFC4FF4AC
:1002A000A06000F023FEFFF74DFF00F0ADFC05F06D
:1002B00030FA05F034FC4FF4E13005F0A1FD4FF4C5
:1002C000165005F01AFE4FF4964005F0A2FE04F019
:1002D00084F8012000F0EDF8E1E08548006800F0C6
:1002E000F6FC50B18248006838B1002080490860AF
:1002F00000221146062002F0CCF97F48008813281E
:100300001DD17E48006800F017FDA0B107F007FB83
:100310007B48006800F010FD48B140F2DC5177489E
:1003200000F0E1FC40F20E61754800F0DCFC0020BA
:1003300000F0BFF816E0012000F0BBF812E06F48B3
:10034000006800F0F9FC68B107F0E9FA4FF47A713F
:100350006A4800F0C8FC0DB9012500E000252846D8
:1003600000F0A7F86748007828B98021574805F0C1
:10037000DAFF012807D16448006820B94FF47A7188
:10038000614800F0B0FC5F48007800BB80214F4816
:1003900005F0C9FFD8B900205B4908605B480078C8
:1003A000012810D15A48006800F0C6FC78B10EB997
:1003B000012600E000266421554800F094FC3046F8
:1003C00000F06EF803E0002000F06AF800264548CF
:1003D00090F8580000280BDD4FF400413C4805F030
:1003E000A2FF28B94B480078012801D100F01EFF78
:1003F0003C4890F8580028B946480078012801D1B7
:1004000001F055F94FF40041314805F08CFF012807
:1004100027D1002000F044F83F48006800F057FC66
:1004200038B100221146052002F033F900203A4984
:1004300008602C4890F8580018B94021234805F06E
:100440008EFF27480068006880B925480068007959
:1004500060B93148006848B940211C4805F07FFF69
:1004600004E042F210712C4800F03DFC03F0FBF96F
:1004700002F035FF03F06CF801F0CDFE2248006871
:1004800000F025FC58B14FF47A711F4800F02BFCA6
:100490000CB9012400E00024204600F001F81CE71C
:1004A00010B5044622464FF48051094805F059FF23
:1004B00010BD10B5044622464FF40051044805F023
:1004C00050FF10BD00140140000801400010014021
:1004D000000C014000180140001C014000200140B8
:1004E000980200200080030854030020C0D40100BB
:1004F0002802002020020020A40200200C0200207C
:100500001002002018020020040200206C020020CB
:10051000080200208402002024020020704700F01E
:1005200018F900F016F900F014F900F012F970470C
:10053000704770478D480068401C8C4908607047C0
:1005400010B5012006F0EAFE70B1012006F0F6FEBB
:1005500006F0B6FE06F078FE8549884204D10020F8
:1005600006F07BFE06F0ACFE10BD70B58148046855
:1005700040F22551804806F011FB012849D140F294
:1005800025517D4806F04AFB00207C4908707A48D6
:1005900006F09AFAC5B27A4800687A49884209D0CA
:1005A00077480068000276490860084600682843DA
:1005B00008602EE000E0246820680028FBD1724823
:1005C0000068000270490860084600682843086017
:1005D000A1686E4802880088401C6C4B18808D54BE
:1005E000694800686A49884203D018460088FC2898
:1005F0000FDD634805600120207164480088E080B9
:10060000FC2000F04FFC206000205F4908605F493B
:10061000088070BD70B55F48046840F225515E489F
:1006200006F0BCFA01283ED140F225515A4806F0A6
:10063000F5FA594806F048FAC5B200E02468206887
:100640000028FBD1554800884FF6FF7101EA0020D1
:10065000524908800846008828430880A16850480D
:1006600002880088401C4E4B18808D541846008824
:10067000E0804A48008840F60A51884203D0184674
:100680000088FC280FDD0020A168454A12888854A4
:10069000FC2000F007FC20600120207100203F4971
:1006A00008803F49088070BD70B53E48046840F23C
:1006B00025513D4806F072FA012849D140F22551F2
:1006C000394806F0ABFA384806F0FEF9C5B23748AB
:1006D00000682C49884209D0344800680002334938
:1006E0000860084600682843086031E000E024689C
:1006F00020680028FBD12E48006800022C490860C1
:100700000846006828430860A1682A4802880088D3
:10071000401C284B18808D54254800681C4988428D
:1007200005D01846008840F2FC71884210DD1F4851
:100730000560012020711F480088E08040F2FC70B5
:1007400000F0B0FB206000201949086019490880BA
:1007500070BD1948006800F4E06018490843001DA6
:1007600015490860BFF34F8F00BFFEE7000200206D
:10077000805101002C02002000380140840200203A
:100780003C020020287B1601400200204402002089
:10079000047E7D29300200200044004048020020F1
:1007A0004602002034020020004800404C02002095
:1007B00050020020540200200CED00E00000FA0579
:1007C0000CB50020019000906C48006840F4803027
:1007D0006A49086000BF6948006800F40030009072
:1007E0000198401C0190009818B90198B0F5A06FCD
:1007F000F1D16248006800F4003010B1012000908F
:1008000001E0002000900098012843D15C48006876
:1008100040F010005A4908600846006820F00300C4
:1008200008600846006840F00200086053484068CD
:10083000524948600846406848600846406840F4AD
:10084000806048600846406820F47C104860084694
:10085000406840F4881048600846006840F08070A6
:10086000086000BF4548006800F000700028F9D01B
:100870004248406820F0030040494860084640680C
:1008800040F00200486000BF3C48406800F00C00A7
:100890000828F9D10CBD10B5FFF792FF10BD10B5B7
:1008A0003648006840F00100344908600846406856
:1008B00034490840314948600846006832490840D8
:1008C0002E4908600846006820F480200860084629
:1008D000406820F4FE0048604FF41F008860FFF776
:1008E000DAFF4FF000602949086010BD10B5002103
:1008F00000200022214B5B6803F00C0121B1042988
:1009000006D0082928D107E0214B224C236027E09C
:10091000214B204C236023E0184B5B6803F47010DC
:10092000164B5B6803F48032022303EB904022B93C
:100930001A4B4343174C23600DE0104B5B6803F4E4
:10094000003323B1164B4343124C236003E0124B98
:100950004343104C236003E00D4B0E4C236000BF5B
:1009600000BF064B5B68C3F303130E4CE15C094BFD
:100970001B68CB40074C236010BD000000100240F4
:10098000002002400000FFF8FFFFF6FE08ED00E047
:1009900000127A0058020020001BB70000093D0039
:1009A000808D5B005C0200202DE9F04FA5B004466D
:1009B0000B254C2112A80AF0C0FE1C210AA80AF03F
:1009C000BCFE03F081FD00286BD04FF41F700BF0CC
:1009D000DBF911904FF4BE700BF0D6F982467C2003
:1009E0000BF0D2F98346002274A17548006809F023
:1009F000C1F80546002D4BD10A2221460AA80AF06B
:100A000083FE70A10AA800F0ECFA0AAB6EA2514670
:100A100012A809F085FF0546042D01D0002D37D11D
:100A200032220AA9119809F0CDF80546002D2FD1E0
:100A30000A21206990FBF1F201FB120690FBF1F70D
:100A4000E06890FBF1F201FB120890FBF1F9CDE9AF
:100A50000498CDE90676607E217EE27DA37DCDE916
:100A60000032CDE90210637D207D00F5FA6257A1C6
:100A700058460AF009FF58460AF07CFE064609ABC4
:100A800032465946119809F051FB119809F019FDA9
:100A900058460BF051F911980BF04EF950460BF0F7
:100AA0004BF95248057025B0BDE8F08F7CB505467E
:100AB0000B2400BF4E48007810B1012853D11BE031
:100AC00000223EA13E48006809F054F804467CB973
:100AD000322248A14A4809F075F804462CB9444826
:100AE0000078401C4249087005E040490C707CBD0C
:100AF0003E490C70FBE737E0002000F056F801ABF0
:100B00000A2229463E4809F011FB044605F114006B
:100B100004F0DBFE009001AB04226946384809F07E
:100B200005FB044301AB022205F10C01344809F036
:100B3000FDFA044301AB022205F11001304809F02F
:100B4000F5FA04432E4809F059FC0443002000F054
:100B50002CF8264804702CB125480078401E244902
:100B6000087001E0C3E700BFA4E770B504460B2698
:100B70004FF4BE700BF008F905464FF4BE712846DD
:100B80000AF0DBFD29461BA009F0DFFE064626B968
:100B9000D5E90001C4E9000102E0002121606160A3
:100BA00028460BF0C9F8304670BD10B50446224601
:100BB0004FF48051134805F0D4FB10BD303A0000CB
:100BC000200200202E786C730000000025642D2583
:100BD000642D25640925643A25643A256409256451
:100BE0002E25640925642E25640D0A0018020020B4
:100BF000900200202E54656D7064617461000000E5
:100C0000882F0020000C014008B50121082005F0C4
:100C1000B3FD4FF4E040ADF8000010208DF8030064
:100C200003208DF802006946094805F0E9FA4FF4FF
:100C30008051074805F093FB4FF40051044805F03C
:100C40008EFB4FF48041024805F089FB08BD00008F
:100C5000000C014030B53E4800684FF47A72B0FB9A
:100C6000F2F1B1F1807F01D301201DE021F07F403E
:100C7000401E4FF0E022506150170F22002807DA83
:100C800013071D0E334B00F00F04241F1D5503E006
:100C900013071C0E304B1C5400BF00204FF0E02205
:100CA000906107201061002080B100BF29480C38F6
:100CB000006800F4E06029490843001D25490C390B
:100CC0000860BFF34F8F00BF00BFFEE730BD014695
:100CD00039B123480068401A03D421480068401AFB
:100CE00070470020FCE711B90022026008E01C4AAE
:100CF00012680A440260026812B90268521C02605B
:100D0000704701B581B068460199FFF7ECFF00BF5D
:100D10000098FFF7DCFF0028FAD00CBD11B90122C2
:100D2000026008E00E4A12680A440260026812B9C2
:100D30000268521C02607047014609480068401A68
:100D400003D407480068401A70470020FCE7000001
:100D50005802002018ED00E000E400E00000FA0571
:100D6000000200200146088870472DE9F041054641
:100D70000E461746002407E036F81410284606F001
:100D80004EFCAD1C601C84B2BC42F5DBBDE8F081BA
:100D900030B503460C461546002207E01846FFF71B
:100DA000E1FF24F812009B1C501C82B2AA42F5DB22
:100DB00030BD2DE9F05F80468A461746B8F1006FD6
:100DC00002D33348804501D3BDE8F09F06F0DFFA37
:100DD000A8F1006B4FEADB25CBF34909C9F5806424
:100DE000A74200DC3C464DE04FF0006101EBC5201E
:100DF0004A142849FFF7CCFF00260BE009EB060058
:100E0000244931F810004FF6FF71884200D003E00A
:100E1000701C86B2A642F1DB00BFA6421BDA4FF07F
:100E2000006101EBC52006F0F7FA002608E03AF869
:100E3000160006EB0901174A22F81100701C86B251
:100E4000A642F4DB4FF0006101EBC5204A141149C2
:100E5000FFF78BFF04E0224651464046FFF785FF2F
:100E6000A74200D10FE06D1C4FF000090AEB440AC5
:100E7000A044381B87B2B7F5806F02DD4FF4806461
:100E800000E03C46B0E700BF06F08DFA00BF9BE7EC
:100E900000000808A435002030BF704772B67047C4
:100EA00062B6704770B50546002428460AF06CFF0C
:100EB00004460CB9204670BD00202060207104F16A
:100EC0000C00A0602046F6E7064880470648004729
:100ED000FEE7FEE7FEE7FEE7FEE7FEE7FEE7FEE7EA
:100EE000FEE7FEE79F080008310100083149014391
:100EF000314A1160704770B5002100230F22C47879
:100F000004B32D4C246804F4E064C4F5E064210AC1
:100F1000C1F10403CA40447804FA03F18478144010
:100F200021430901254C0678A155047804F01F05DA
:100F30000124AC4005786D11AD0005F1E025C5F840
:100F4000004109E0047804F01F050124AC401C4D69
:100F50000678761145F8264070BD1A4A0A400243C9
:100F6000154B1B1F1A60704739B1134A121D1268C6
:100F70000243114B1B1D1A6006E00F4A121D126836
:100F800082430D4B1B1D1A607047042808D14FF097
:100F9000E021096941F004014FF0E022116107E00E
:100FA0004FF0E021096921F004014FF0E0221161C6
:100FB000704700000000FA050CED00E000E400E0DE
:100FC00080E100E080FFFF1F10B504464FF47F7002
:100FD0000AF0DAFE10BD10B5044620460AF0ACFE59
:100FE00010BD421E12F8013F002BFBD111F8013B4E
:100FF00002F8013B002BF9D1704770470000000058
:10100000010300800C00000C98BADCFE2DE9F041D1
:10101000002400250027FE4800680079012802D03E
:101020003846BDE8F081002406E0F9480068806891
:10103000005D4540601C84B2F5480068C088401FD0
:10104000A042F2DCF24800688068005DA84200D04F
:10105000A0E0EF4800688068807A68287ED1EC487C
:101060000068C08819283DD1EA48007800EB4001AB
:1010700001EBC000E84901EB8000E5490968896897
:101080000A6802604A68426009890181E048006894
:101090008068C07ADF49097801EB410202EBC101A7
:1010A000DD4A02EB8101C872DA48007800EB4001AA
:1010B00001EBC000114601EB8000D5490968896841
:1010C000C968C160D348007800EB400101EBC00063
:1010D000114601EB8000CE4909688968098A0182BE
:1010E000012700E000BF00BF06F0AEF88046CB4904
:1010F00004F06FFAC948007DA0F5FA60C549097887
:1011000001EB410202EBC101C34A02EB8101087508
:10111000C248017CBF48007800EB400202EBC000EF
:10112000BD4A02EB80004175BC48017BB94800789C
:1011300000EB400202EBC000B74A02EB8000817571
:10114000B648017AB348007800EB400202EBC000D9
:10115000B14A02EB8000C175B04800E017E00179A8
:10116000AC48007800EB400202EBC000AA4A02EB58
:1011700080000176A9480178A648007800EB40027B
:1011800002EBC000A44A02EB8000417600E000BF01
:1011900000BF00BF0421A24804F092FE9C4A1268DE
:1011A000D1889B4A1268906804F08AFE98480068CB
:1011B00006680020964909680871954800680AF099
:1011C000BBFD9348066038462BE72DE9F041064603
:1011D00000270025FC200AF0D7FD0446FC2120460C
:1011E0000AF0ABFA8E480068206030686060706872
:1011F000A0603089A0816720A073042503E0605DB2
:101200004740681CC5B20B2DF9DBE77385480068C1
:10121000206100F0B3FA1421204604F05FFF00F0D3
:10122000A6FA20460AF088FDBDE8F08110B57E4898
:10123000007805287ED2DFE800F0036BEAE9E800D9
:101240007A488078022806D1002079490870032066
:10125000754908705BE07748007803283FDB6D48EC
:10126000007800EB400101EBC0006B4901EB80000E
:10127000007FF0B96748007800EB400101EBC00047
:10128000654901EB8000006A98B96B4A92F85220D8
:101290004EF6602302FB03F15E4A127802EB420332
:1012A00003EBC2025C4B03EB820202F12000FFF76A
:1012B00035FD58480078401C5649087000205D49AB
:1012C00008705D4890F858005249097888421EDC41
:1012D00000205049087002205349087017E04D491A
:1012E000097801EB810202EBC101544A02EB810053
:1012F000FFF76BFF40F2DC515148FFF7F4FC01208F
:10130000494908704B480078401C4A490870CAE1B6
:10131000FFF77CFE012877D13E4A127802EB820368
:1013200003EBC202454B03EB82013A4A127802EB0F
:10133000420300E0B3E103EBC202374B03EB820050
:101340000A220AF01EFA00287CD13249097801EB02
:10135000410202EBC101304A02EB8100FFF7A6FB1C
:1013600000202C49097801EB410202EBC1012A4A15
:1013700002EB810108622748007800EB400101EB95
:10138000C000114601EB8000C0682249097801EBDA
:10139000810202EBC101294A02EB8101496A8842BC
:1013A00015DC1C48007800EB400101EBC0001A4935
:1013B00001EB8000C0681749097801EB810202EB5C
:1013C000C1011E4A02EB8101896A884243DA114851
:1013D000007800EB400101EBC0000F4901EB8000F9
:1013E000406A80BB144A92F8502040F253735A432B
:1013F0004FF4FA6303EB4211064A127802EB420300
:1014000003EBC202044B1FE0C4E037E103E1D8E084
:10141000340200206E020020B40300208835002032
:10142000F4BD0008F8BD00086C020020180200207E
:10143000810200206D0200205403002000000408F7
:1014400070020020A0E011E003EB820202F1240010
:10145000FFF764FC0AE00020CC49097801EB410267
:1014600002EBC101CA4A02EB81014862C748007819
:1014700000EB400101EBC000C54901EB80000069B1
:10148000C249097801EB810202EBC101C14A02EBBA
:101490008101C96A884215DCBC48007800EB400134
:1014A00001EBC000BA4901EB80000069B749097837
:1014B00001EB810202EBC101B64A02EB8101096B2B
:1014C000884222DAB148007800EB400101EBC0000D
:1014D000AF4901EB8000806A10BBAF4A92F8502000
:1014E00040F253735A434FF4FA6303EB4211A74A95
:1014F000127802EB420303EBC202A54B03EB82021C
:1015000002F12800FFF70AFC0AE000209F49097851
:1015100001EB410202EBC1019D4A02EB81018862AD
:101520009A48007800EB400101EBC000984901EBBC
:101530008000406A9549097801EB410202EBC10144
:10154000934A02EB8101896A084438B9934840689C
:10155000052190FBF1F201FB120050B98B4909788B
:1015600001EB410202EBC101894A02EB8100FFF766
:101570001BFA86480078401C84490870002088497E
:1015800008708849087005E00120874948700020EC
:1015900084490870804890F858007C49097888424E
:1015A00006DC00207949087002207E49087007E0B7
:1015B0007E480068FFF78BFB10B100207949087066
:1015C00071E079488078022805D1794908700320B4
:1015D000744908701EE077480068FFF778FBC8B1CF
:1015E00005F032FE3C21B0FBF1F201FB120088B99C
:1015F0000020664908706B490870674890F85700EA
:1016000040F2537250434FF4FA72C2EB40116948F2
:10161000FFF769FB47E0684800680079012825D199
:1016200000F0ACF80421654804F058FD624A1268E5
:10163000D188614A1268906804F050FD00F097F874
:101640005D480068046800205B49096808715A48D1
:1016500000680AF071FB5848046004205149087082
:101660004FF4FA615648FFF73EFB06E003204E496F
:1016700088704F4800784B49087014E0FFF7C6FCAB
:10168000012804D04E480068FFF721FB30B14848DC
:1016900000784449087003204349887003E0012022
:1016A0004049087000BF00BF3E48007810BD10B52B
:1016B00044480078022804D003280CD004284ED1D6
:1016C0003CE039488078022804D13F490870032063
:1016D0003C49087047E0384800680079012825D166
:1016E00000F04CF80421354804F0F8FC324A126846
:1016F000D188314A1268906804F0F0FC00F037F8A5
:101700002D480068046800202B49096808712A48A0
:1017100000680AF011FB2848046004202949087079
:101720004FF4FA612648FFF7DEFA06E003201E496F
:101730008870254800781B49087014E0FFF766FCA4
:10174000012804D01E480068FFF7C1FA30B11E48D6
:1017500000781C49087003201349887003E00220B8
:101760001849087000BF00BF0E48007810BD10B5C2
:101770004FF48071154804F0F2FD10BD10B54FF420
:101780008071124804F0E9FD10BD00006E020020D7
:10179000B403002000000408540300208835002012
:1017A0006D0200206C020020180200207002002050
:1017B00081020020780200202C020020F4BD0008E5
:1017C00074020020830200208202002000140140E5
:1017D00070B588B00546002400261C2101A809F038
:1017E000ACFFFE4800680190FD4801680291416825
:1017F00003910089ADF8100031208DF81200012D01
:101800003AD1F8480068806800F10C015822F64887
:1018100009F07AFF00BF1BE0F34800EB04100078EA
:10182000302805DDF04800EB0410007839280DDB86
:10183000ED4800EB041000782B2807D0EA4800EBB5
:101840000410007810B100208DF81300601CC4B2A1
:10185000052CE1DBE44890F856000A2803DD0A2055
:10186000E14981F856005E22DF49E048FFF7A1FA1E
:1018700001208DF8130002E000208DF813000424ED
:1018800004E001A8005D4640601CC4B20F2CF8DBE8
:101890008DF81460D6480068CDF81500152101A810
:1018A00004F00EFB0120D349086008B070BD2DE99B
:1018B000FC4107460025A8460FB9BDE8FC81FC2085
:1018C0000AF062FA044604B9F7E7FC21204609F061
:1018D00034FFC24800682060C14801686160416807
:1018E000A1600089A0813320A0730120E0735E22F3
:1018F000BE49BD4809F008FF5922BB4904F1100058
:1019000009F002FF6846FFF730F912220023DDE9F3
:10191000000109F097FE0646C4F86960042504E05A
:10192000605D80EA0808681C85B26D2DF8DB84F8DC
:101930006D80AF490968C4F86E107221204604F02A
:10194000BFFA20460AF0F8F900BFB6E72DE9F041EA
:10195000BCB007460024A0461C2134A809F0EDFEC7
:10196000D021684609F0E9FE9C48006834909C4804
:1019700001683591416836910089ADF8DC00352069
:101980008DF8DE00012F7CD1964800688068457B89
:10199000944800688068867B0020934981F858004D
:1019A000904800688068007B01280ED142F6D4314F
:1019B000914809F0C2FE0020904908608A4981F8E8
:1019C00058005E228948FFF7F4F98648006880686D
:1019D000007BA8420CD1681E06EB8000824981F88A
:1019E00058005E228148FFF7E4F901208149086030
:1019F000002474E07B4A12689268302303FB0422BF
:101A000002F10F0104EB840202EBC4026B4603EB0C
:101A1000820202F10C00182209F076FE714800687B
:101A20008068302101FB04000F3004EB840101EBDE
:101A3000C4016A4602EB810182690A60C2694A6098
:101A4000008C0881674800688068302101FB040031
:101A5000B0F831003B90BDF9EC0004EB840101EBE0
:101A6000C4016A4602EB810148625E4800688068F2
:101A7000302101FB0400B0F833003B90BDF9EC00CD
:101A800000E041E004EB840101EBC40102EB8101C1
:101A90008862544800688068302101FB0400B0F877
:101AA00035003B90BDF9EC0004EB840101EBC4016F
:101AB00002EB8101C8624B4800688068302101FB5D
:101AC0000400B0F837003B90BDF9EC0004EB840152
:101AD00001EBC40102EB81010863601CC4B2B44293
:101AE00088DB342106FB01F2691E890001EB8103CA
:101AF00003EBC101424B03EB81006946FFF759F943
:101B000001208DF8DF0002E000208DF8DF000424C2
:101B100005E034A8005D80EA0808601CC4B20F2C00
:101B2000F7DB8DF8E08032480068CDF8E100152140
:101B300034A804F0C5F93CB0BDE8F0812DE9F043CC
:101B40008BB007460026B0461C2104A809F0F5FD1D
:101B500024480068806800F10C040025012F7DD125
:101B6000207800F00F002178090901EB810100EBDA
:101B70004100C0B223490860641C207800F00F00C7
:101B80002178090901EB810100EB4100C0B21D4938
:101B90004860641C207800F00F002178090901EBEF
:101BA000810100EB4100C0B216498860641C2078B6
:101BB00000F00F002178090901EB810100EB4100E1
:101BC000C0B21049C860641C207800F00F00217872
:101BD000090901EB810100EB410015E0F4BD0008AB
:101BE000009003082C02002054030020008003080A
:101BF000F8BD000878020020B40300209C020020F9
:101C00000000040888350020C0B2FE490861A41C09
:101C1000207800F00F002178090901EB810100EB29
:101C20004100C0B200F5FA60F64948610846808874
:101C3000284405B208460089284405B20846808930
:101C4000284405B20846008A284405B20846808A1E
:101C5000284405B203F01EFDEA4A00E03AE01032E3
:101C600007CA8DE80700E7480FC803F073FD8146F7
:101C700005F0F3FA05F024FB4AF2A551042005F023
:101C800024FA05F0E1FA8146DE4903F0A2FCDD48C2
:101C90008088281A05B2DB480089281A05B2D9487D
:101CA0008089281A05B2D748008A281A05B2D54873
:101CB000808A281A05B2281E01DB014600E0414255
:101CC000032903DA01208DF81F0006E000208DF8BB
:101CD0001F0002E000208DF81F00CB480068049030
:101CE000CA4801680591416806910089ADF81C0059
:101CF00077208DF81E00042605E004A8805D80EAA8
:101D00000808701CC6B20F2EF7DB8DF82080C04883
:101D10000068CDF82100152104A804F0D1F80BB01B
:101D2000BDE8F0832DE9FC5F824603200190002688
:101D30004FF0000B00200090814600BFBAF1000F69
:101D400001D1BDE8FC9FFC200AF01EF80446FC21EE
:101D5000204609F0F2FCAF4800688168AE48D1F82F
:101D60000B100160A84800682060A8480168616005
:101D70004168A1600089A0817920A0730020E073F0
:101D800002F0A2FB002855D04FF41F7009F0FCFFB1
:101D900005460022A1A1A248006807F0EBFE0190D1
:101DA000019800283FD103229EA1284607F00AFF90
:101DB0000190019850B92F69D5F8148012220023A0
:101DC0003846414609F03EFC009000E000BF00BFED
:101DD0000A210098B0FBF1F90098B0FBF1F201FB89
:101DE000120008B109F101098B480068401E4845FE
:101DF00001D90020E07388480068401EB4224243A5
:101E00000023284608F06EFB6B46B42204F119014A
:101E1000284608F058F812210098B0FBF1F020761F
:101E2000284608F04EFB009808B10120E0732846D0
:101E300009F082FFC4F810907748006860610426BA
:101E400004E0A05D80EA0B0B701CC6B2009819304C
:101E5000B042F6D80098193004F800B004F1180028
:101E6000009908446A490968C0F8021000981E30B9
:101E700081B2204604F024F8204609F05DFF00BF3F
:101E80005FE72DE9FC5F82460320019000264FF0BA
:101E9000000B00200090814600BFBAF1000F01D175
:101EA000BDE8FC9FFC2009F06FFF0446FC212046A2
:101EB00009F043FC5748006881685D48D1F80B1071
:101EC00001605148006820605048016861604168C5
:101ED000A1600089A0818120A0730020E07302F03E
:101EE000F3FA002856D04FF41F7009F04DFF054655
:101EF00000224AA14A48006807F03CFE0190019880
:101F0000002840D103224BA1284607F05BFE019038
:101F1000019850B92F69D5F814802C220023384637
:101F2000414609F08FFB009000E000BF00BF052193
:101F30000098B0FBF1F90A210098B0FBF1F201FB27
:101F4000120008B109F1010939480068401E4845EE
:101F500001D90020E07336480068401EDC2242436D
:101F60000023284608F0BEFA6B46DC2204F1190172
:101F7000284607F0A8FF2C210098B0FBF1F020764E
:101F8000284608F09EFA009808B10120E073284620
:101F900009F0D2FEC4F8109025480068606104265C
:101FA00004E0A05D80EA0B0B701CC6B200981930EB
:101FB000B042F6D80098193004F800B004F11800C7
:101FC0000099084412490968C0F8021000981E30B0
:101FD00081B2204603F074FF204609F0ADFE00BF39
:101FE0005EE7F0B58DB0064600240027142108A84E
:101FF00009F0A3FB1C21684609F09FFB0EB90DB048
:10200000F0BD1DE088350020F4BD000800900308F5
:10201000F8BD00082C02002088020020303A0000A1
:10202000200200202E54656D706461746100000010
:102030008C0200202E416C61726D6461746100003D
:10204000FC480068806800780B300790BDF81C00E1
:102050004FF6FF7101EA00200790F648006880689B
:1020600000780C30BDF81C1008430790F148006858
:102070008068B0F80B00079000208DF82F0002F068
:1020800023FA002859D00022AFF27001EA48006814
:1020900007F070FD0546002D4FD1BDF81C0041F63C
:1020A0009111884205D0BDF81C0049F6991188426B
:1020B00004D1AFF2900008F0B7FD0546BDF81C0052
:1020C00042F69211884205D0BDF81C0049F69911DC
:1020D000884204D1AFF2A40008F0A6FD0546BDF881
:1020E0001C0043F69311884205D0BDF81C0049F648
:1020F000991188421BD1002414E004EB440000EB4A
:10210000C400CE4A02EB80010A22684609F0FCFABC
:10211000CBA16846FEF765FF684608F085FD0546D9
:10212000601CC4B2C84890F85800A042E5DC042DF9
:1021300000D015B901208DF82F00C4480068089020
:10214000C3480168099141680A910089ADF82C00E3
:1021500073208DF82E0001208DF82F00BDF81C0093
:1021600000128DF83000BDF81C00C0B28DF83100AF
:10217000042404E008A8005D4740601CC4B2112C90
:10218000F8DB8DF83270B3480068CDF833001721C2
:1021900008A803F095FE00BF0DB0F0BD2DE9F04199
:1021A0000646002500270EB9BDE8F081FC2009F0A5
:1021B000EBFD044604B9F7E7FC21204609F0BDFA1F
:1021C000A24800682060A248016861604168A1607F
:1021D0000089A081CB20A0730120E0739E48016894
:1021E0002161416861618068A061042503E0605D50
:1021F0004740681C85B21C2DF9DB27779549096893
:10220000C4F81D102121204603F05AFE204609F093
:1022100093FD00BFC8E72DE9F04100250024002709
:10222000844800680079012802D03846BDE8F08172
:10223000002506E07F4800688068405D4440681CD7
:1022400085B27C480068C088401FA842F2DC79480B
:1022500000688068405DA04201D0002400E00124B5
:1022600001207E4908707348006881680A22784816
:1022700009F087FA28B16F48006880680078002864
:102280007DD16C4800688068807A762839D008DC77
:1022900030280FD0322817D0342819D072286FD1A7
:1022A00041E0782837D0802839D0CA284AD0CC28B5
:1022B000F5D14BE05F480068C088692800D0002451
:1022C0002046FFF785FA8EE02046FFF7F0FA8AE015
:1022D00058480068C088D4280FD056480068C08885
:1022E00074280AD053480068C088A42805D05148F3
:1022F0000068C088442800D000242046FFF726FB51
:1023000071E04C480068C088182800D0002420469E
:10231000FFF714FC67E02046FFF704FD63E020466A
:10232000FFF7AFFD5FE0434800688068C07A01288E
:1023300004D102204A498870384677E72046FFF7E3
:1023400050FE50E02046FFF729FF4CE0012000F04E
:102350008DF8012C15D1374800688068C07A55285F
:102360000FD134480068806800F10C010A22384817
:10237000FEF71FFD4FF49670FEF7C3FC2EE033E02E
:1023800030E0012C2AD12B4800688068C07A66288A
:1023900024D15E212C4809F0D0F901202A4981F886
:1023A000500081F85100052081F85200012081F889
:1023B000530081F8540081F85500002081F8560040
:1023C000012081F85700002081F858005E2225483E
:1023D000FEF7EFFC4FF49670FEF793FC002000F040
:1023E00045F800E000BF16E0124800688068807A77
:1023F0005B280BD1144890F858002C2200FB02F106
:102400000E4809F09AF90020174908600220144983
:10241000887038460AE707480068066800200549C2
:10242000096808710348006809F086FC01480660E5
:102430003846FBE62C02002020020020B4030020D6
:102440002E786C730000000054030020F4BD0008D7
:1024500000900308F8BD0008001000088402002066
:1024600018020020008003089C02002010B50446DA
:1024700022464FF48041024803F073FF10BD000074
:10248000000C0140F1B596B002F01EF800287DD096
:102490004FF41F7009F078FC06464FF4BE7009F047
:1024A00073FC05460022FEA1FE48006807F062FBAF
:1024B0000446002C6BD1FCA3FEA2294602A808F01A
:1024C0002FFA044614B1042C7ED100BF3322F6A1AA
:1024D000304607F077FB15AB012216A9304607F00E
:1024E00025FE15AB0122F4480168891D304607F02E
:1024F0001DFE15AB1022F04801682331304607F06D
:1025000015FEED4800688079052804D0EA48006887
:102510008079062810D115AB0A22E849304607F029
:1025200005FE04F091FE0746E54903F052F800204D
:1025300003F0CBF901901DE0DF480068007A00EB62
:10254000800202EBC000DF4A02EB800115AB0A22D9
:10255000304607F0EBFDD8490968097A01EB4102E2
:1025600002EBC101D84A02EB810101F1140003F032
:10257000ACF9019015AB042201A9304607F0D6FD55
:10258000CD480068007A00EB400201E06FE068E0AF
:1025900002EBC000CC4A02EB800000F10C0115AB4D
:1025A0000222304607F0C2FDC3480068007A00EB03
:1025B000800202EBC000C34A02EB800000F124015C
:1025C00015AB0222304600E049E007F0AFFDBA4803
:1025D0000068007A00EB800202EBC000B94A02EB0F
:1025E000800000F1280115AB0222304607F09EFD65
:1025F000B1480068007A00EB400202EBC000B24A2A
:1026000002EB800000F1100115AB0222304607F00A
:102610008DFDA9480068007A00EB800202EBC00043
:10262000A84A02EB800000F12C0115AB02223046D3
:1026300007F07CFDA0480068007A00EB800202EB06
:10264000C000A04A02EB800000F1300115AB02226D
:10265000304607F06BFD304607F033FF00E000BF67
:1026600000BF304609F068FB284609F065FB17B04B
:10267000F0BD70B504460025204609F085FB0546EF
:102680000DB9284670BD2146284609F056F828465F
:10269000F8E72DE9F04707460D469046864804685E
:1026A0000026072F7ED2DFE807F07D07050604B776
:1026B000B80000BF00BF00BF00E024682068002809
:1026C000FBD10026A4E0814800EB0610007800282A
:1026D00069D002206071A77184F80780257205EB2C
:1026E000850000EBC500774A02EB800000F10C0189
:1026F000182204F1090009F007F8744800EB0611EC
:10270000102204F1230008F0FFFF012F28D0022F30
:1027100025D0032F02D0042F30D100BF04F094FD48
:102720008146674902F055FF6548007DA0F5FA60D3
:1027300084F833006248017C342001556048017BF5
:10274000352001555E48017A362001555C480179F3
:10275000372001555A480178382001550FE000BF55
:1027600005EB450000EBC500574901EB80004169CE
:10277000C4F833108069C4F8370000E000BF00BF20
:1027800005EB450000EBC5004F4901EB8000808957
:1027900000B2A08705EB450000EBC50001EB80000F
:1027A000008A01E097E031E000B2E08705EB8500A8
:1027B00000EBC500434901EB8000808C00B2A4F817
:1027C000400005EB850000EBC50001EB8000008DAB
:1027D00000B2A4F8420005EB850000EBC50001EB58
:1027E0008000808D00B2A4F8440005EB850000EB6A
:1027F000C50001EB8000008E00B2A4F84600012065
:1028000020717C20FFF735FF20602468701CC6B261
:10281000052EFFF658AF61E000BF00E02468206895
:102820000028FBD100263AE0284800EB061000788B
:1028300098B302206071A77184F80780234800EBE9
:102840000611102204F1230008F05EFF04F0FCFCE6
:1028500081461B4902F0BDFE1948007DA0F5FA60D3
:1028600084F833001648017C342001551448017B5C
:10287000352001551248017A36200155104801795A
:10288000372001550E48017838200155012020716C
:102890007C20FFF7EEFE20602468701CC6B217E0B3
:1028A000303A0000200200202E416C61726D64619C
:1028B00074610000000000009802002000900308EE
:1028C0008835002000000408B403002054030020D1
:1028D000052EA9DB02E00120BDE8F08700BF002043
:1028E000FAE710B5FE48007830B9FE480068FE49A6
:1028F00008600020FB490860FC4890F8580008B9BF
:10290000012010BDFA4890F8550000287DD0F44908
:10291000097801EB410202EBC101F64A02EB8101A9
:10292000086AFEF7D4F9E8B3ED48007800EB4001FF
:1029300001EBC000EF4901EB8000017FEC4890F80B
:102940005600401C814230DAE94A92F852204EF695
:10295000602302FB03F1E24A127802EB420303EB2D
:10296000C202E44B03EB820202F12000FEF7D6F92B
:10297000DB48007800EB400101EBC000DD4901EBD2
:102980008000007F401CD649097801EB410202EB30
:10299000C101D84A02EB810108770022D0480178B2
:1029A000032000E001E0FFF774FECD48007800EB63
:1029B000400101EBC000CF4901EB8000007F0028FF
:1029C0001BDDC748007800EB400101EBC000C9499E
:1029D00001EB8000006A80B90020C149097801EB51
:1029E000410202EBC101C34A02EB810108770022D8
:1029F000BB4801780420FFF74CFEB948007800EB93
:102A0000400101EBC000BB4900E007E001EB8000A2
:102A1000007FB44909680844B2490860B44890F896
:102A2000530000287ED0AE49097801EB410202EB49
:102A3000C101B04A02EB8101486AFEF748F900285B
:102A40006BD0A748007800EB400101EBC000A9491A
:102A500001EB8000417FA64890F85600401C81425F
:102A60005BDAA34A92F850204EF6602302FB03F192
:102A70009B4A127802EB420303EBC2029D4B03EB2D
:102A8000820202F12400FEF749F99548007800EB34
:102A9000400101EBC000974901EB8000C0689049FC
:102AA000097801EB810202EBC101934A02EB81013B
:102AB000496A884215DC8A48007800EB400101EB46
:102AC000C0008C4901EB8000C0688549097801EBA2
:102AD000810202EBC101884A02EB8101896A8842C6
:102AE0001BDA7F48007800EB400101EBC000814910
:102AF00001EB8000407F401CC1B27948007800EBB8
:102B0000400202EBC0007B4A02EB800041770122C9
:102B1000734801781046FFF7BCFD7148007800EB60
:102B2000400100E034E101EBC000724901EB80009C
:102B3000407F00281BDD6A48007800EB400101EB74
:102B4000C0006C4901EB8000406A80B900216448F4
:102B5000007800EB400202EBC000664A02EB800006
:102B6000417701225E4801780220FFF792FD5C4820
:102B7000007800EB400101EBC0005E4901EB8000F2
:102B8000407F584909680844564908605449097803
:102B900001EB410202EBC101564A02EB8101886A56
:102BA000FEF795F8002878D04D48007800EB4001FA
:102BB00001EBC0004F4901EB8000817F4C4890F849
:102BC0005600401C814268DA494A92F850204EF67D
:102BD000602302FB03F1424A127802EB420303EB4B
:102BE000C202444B03EB820202F12800FEF796F882
:102BF0003B48007800EB400101EBC0003D4901EB90
:102C0000800000693649097801EB810202EBC101BD
:102C1000394A02EB8101C96A884215DC30480078E4
:102C200000EB400101EBC000324901EB800000697C
:102C30002B49097801EB810202EBC1012E4A02EB1C
:102C40008101096B884247DA2548007800EB400192
:102C500001EBC000274901EB8000C07A03281DD199
:102C60001F48007800EB400101EBC000214901EB57
:102C70008000807F401CC1B21948007800EB400200
:102C800002EBC0001B4A02EB80008177012214484E
:102C900001781046FFF7FDFC1DE01DE010480078AC
:102CA00000EB400101EBC000124901EB8000807F86
:102CB000401CC1B20A48007800EB400202EBC000A1
:102CC0000C4A02EB8000817702220548017801203E
:102CD000FFF7DFFC00BF00BF014800780EE00000F6
:102CE000AD020020B00200209C02002000800308FA
:102CF00054030020B40300200000040800EB40014E
:102D000001EBC000FA4901EB8000807F002830DD34
:102D1000F848007800EB400101EBC000F44901EBFA
:102D20008000806A28BB0021F248007800EB400256
:102D300002EBC000EE4A02EB80008177ED4800789C
:102D400000EB400101EBC000114601EB8000C07AAE
:102D5000032806D10122E74801780220FFF799FCF9
:102D600006E00222E34801781046FFF792FC00BF1C
:102D700000BFE048007800EB400101EBC000DC49F7
:102D800001EB8000807FDC4909680844DA4908606B
:102D9000DA4890F85400012809D1D948006830B1C8
:102DA000D848006870B90120D64908600AE00020C0
:102DB00000F05FFD0020D349086000221021D248B6
:102DC00003F0CFFACF480068FDF781FFC0B14FF4A0
:102DD0007A71CC48FDF787FFCC48007818B90120FC
:102DE000CA49087002E00020C8490870C748027844
:102DF0001021C54803F0B5FAC448007800F039FD49
:102E0000BC480078401CBB490870BC4890F858008A
:102E10000978884202DC0020B6490870002070E57D
:102E20002DE9F041074600253946B94808F0B6FCBF
:102E3000FC21384608F081FCB846B54E25E016F86E
:102E4000014B204604F0CFFE70B1082D0CD00B2DA5
:102E50000AD0307804F0DEFE30B1307840EA042049
:102E600084B2681CC5B2761C4FF46A71204608F023
:102E700062FB044604B93F242246A6A1404608F05E
:102E800003FD08F10408681CC5B2A14808F072FCF3
:102E9000A842D4D8FC219E4808F04FFCBDE8F08140
:102EA0002DE9F04F8BB000200A9007900890099010
:102EB0009A48008813280CD09948006800790128A6
:102EC00004D1002096490968487102E00BB0BDE8C2
:102ED000F08F934800680079012800D0F6E7914808
:102EE00001680791416808910089ADF824008C4879
:102EF0000068407900287DD001287CD0022802D0CB
:102F0000032879D1C9E14FF4FE7008F03DFF044673
:102F10004FF4FE71204608F010FC4FF47F7008F06B
:102F200033FF0A904FF47F710A9808F006FC7EA1E7
:102F30000A9808F033FC7A4801682331204608F0EB
:102F40002DFC2046FFF76CFF21460A98FEF749F852
:102F50007DA10A98FEF745F87148006890F838009E
:102F60006F49096891F837106D4A126892F8362057
:102F70006B4B1B6893F83530CDE90032CDE9021078
:102F80006748006890F834306548006890F833204E
:102F90006EA1204608F078FC614800688079082816
:102FA0007DD2DFE800F07C0493A3A2A1A09F5C483F
:102FB000016809312046FEF714F859480068C079C5
:102FC00001283FD156480068B0F940000A2190FB23
:102FD000F1F201FB120652480068B0F9400090FB84
:102FE000F1F74F480068B0F9420090FBF1F201FBA5
:102FF000120802E05CE15AE16DE149480068B0F96D
:10300000420090FBF1F946480068B0F93C0090FBA3
:10301000F1F201FB120A42480068B0F93C0090FB53
:10302000F1F00690204608F0A5FB00EB040B534698
:10303000CDE90098CDE902764DA15846069A08F0F0
:1030400023FC42E036480068C07902283DD134486C
:103050000068B0F944000A2190FBF1F201FB12066E
:103060002F480068B0F9440090FBF1F72C48006845
:10307000B0F9460090FBF1F201FB12082848006805
:10308000B0F9460090FBF1F925480068B0F93E0020
:1030900090FBF1F201FB120A2148006800E0CFE04A
:1030A000B0F93E0090FBF1FB204608F063FB2044A2
:1030B000CDE90198CDE903760690252053465A467E
:1030C00035A10090069808F0DFFBBAE014480168CB
:1030D00009312046FDF785FF11480068C0790128B5
:1030E00073D16DE0A3E099E08FE083E077E06CE0DE
:1030F000B4030020AD020020B002002054030020E1
:103100009C020020A002002000080140AC02002028
:10311000C83100202530345800000000A4020020EF
:10312000980200200090030841542B43534D503D1A
:1031300031372C3136372C302C380D0A41542B4383
:103140004D47533D22000000220A00003230253056
:1031500032642D253032642D253032642025303202
:10316000643A253032643A25303264200000000091
:1031700020CEC2B6C8B3ACCFDE3A25642E2564207B
:10318000A1E62028A1FD25642E25642CA1FC256440
:103190002E2564290000000020CAAAB6C8B3ACCF0F
:1031A000DE3A25642E256420256352482028A1FD9F
:1031B00025642E25642CA1FC25642E25642900009D
:1031C000F4A12046FDF70DFF08E0F8480068C0793B
:1031D000022803D1F6A12046FDF703FF31E0F348B2
:1031E000016809312046FDF7FCFEF7A12046FDF7F6
:1031F000F8FE26E0ED48016809312046FDF7F1FEB2
:10320000F4A12046FDF7EDFE1BE007A92046FDF7DF
:10321000E8FEF5A12046FDF7E4FE12E007A92046EE
:10322000FDF7DFFEF6A12046FDF7DBFE09E007A96A
:103230002046FDF7D6FEF9A12046FDF7D2FE00E0BC
:1032400000BF00BF2046FFF7EBFD204608F092FAD2
:1032500006191A22F9A1304608F016FB21460A98F1
:10326000FDF7BFFE0A9808F085FA86B231460A9843
:1032700002F0A1FE0520F24908800320CB4909682D
:1032800048714EF66021EF48FDF72DFD0A9808F0D1
:1032900053FD204608F050FD1EE0EA480068FDF7A7
:1032A00016FD18B10020C1490968487114E000BF3B
:1032B000BE4909684879FFF7E5F8BC480068056829
:1032C0000020BA4909680871B848006808F034FD60
:1032D000B648056000BF00BF00BF00BFF6E570B58F
:1032E000D94800680079012800D070BDD648006830
:1032F0008468D5480068C08802287DDD207845288C
:103300007BD004DC2B281DD0412877D104E04F2846
:1033100075D05228F9D195E00222CCA1204608F0C0
:1033200046FA70B9A0780D2802D0452808D103E0EC
:103330000120C349088003E00420C149088000BF80
:1033400000BFF5E00522C2A1204608F030FA30B9EE
:103350000520BB49088001209449096848710A2268
:10336000BDA1204608F023FA50B9B54800880528C9
:1033700004D100208D490968487100E000BF00BFFA
:103380000522B8A1204608F012FAA8B9E079302841
:1033900002D031280ED106E00620A94908800F206E
:1033A000B249088007E00720A54908801020AF49EE
:1033B000088000E000BF00BF0522ADA1204608F054
:1033C000F6F958B9ACA1204608F0C2F918B10C20A2
:1033D000A649088002E00A20A44908800522A8A185
:1033E000204608F0E4F980B9A7A1204608F0B0F91A
:1033F00040B10D209D4903E09BE072E097E02CE096
:10340000088002E00E20994908800522A0A12046EC
:1034100008F0CDF9A8B9607A312804D0322807D055
:10342000352809D100E000BF13209049088007E04B
:1034300015208E49088003E00A208C49088000BFCF
:1034400000BF75E0042294A1204608F0B0F918B935
:10345000052193A002F0AFFD6AE0022292A120466E
:1034600008F0A5F980BB764800880D2836D2DFE841
:1034700000F00F071335181735351C352D202C009B
:1034800006218AA002F097FD04206D49088026E0FD
:103490000B207649088022E00E20744908801EE047
:1034A0001DE00C207149088019E00D206F4908804B
:1034B00015E00B2180A002F07EFD11206B490880F1
:1034C0000C205F4908800AE00AE008E006217DA0A0
:1034D00002F071FD02205A49088000E000BF00BFE1
:1034E00026E0052279A1204608F061F9F0B9544898
:1034F0000088001F0B2817D2DFE800F014060F1613
:1035000015161616160E1000002028490968487175
:103510000B205649088008E000BF00BF0A2053492D
:10352000088002E000BF00E000BF00BF00E000BF75
:1035300000BF4548006805680020434909680871D4
:103540004148006808F0F8FB3F48056000BFCCE642
:1035500010B54648008816281BD2DFE800F00BBFE4
:103560001A1A1A1A1A1A1A1AFED1E4FFFCFBFAF9EF
:10357000F81A1AF74021574802F0EFFE41F288315D
:103580005548FDF7B0FB39480088401C3749088092
:1035900067E165E120CEC2B6C8BBD6B8B420B3ACF3
:1035A000CFDEB1A8BEAFBDE2B3FD2100980200207E
:1035B00020CAAAB6C8BBD6B8B420B3ACCFDEB1A877
:1035C000BEAFBDE2B3FD210020C9E8B1B8B5F4CF6C
:1035D000DF21000020C9E8B1B8C9CFCFDFBBD6B822
:1035E000B4D5FDB3A321000020484532343335B9AA
:1035F000DCC0EDD6F7BBFAB6CFB5E721212100003C
:1036000020484532343335B9DCC0EDD6F7BBFABBC0
:10361000D6B8B4B9A9B5E721212100002048453228
:10362000343335B9DCC0EDD6F7BBFAD5FDD4DACEEC
:10363000C8B6A8D4CBD0D02121210000256300003A
:10364000A6020020A8020020300200204154000001
:103650002B434D47533A00002B434D5320455252C4
:103660004F5200002B434D47463A3000A402002041
:103670002B4350494E000000524541445900000080
:103680002B435343530000005543533200000000C6
:103690002B4352454700000052494E4700000000AE
:1036A0004154480D0A0000004F4B00004154453082
:1036B00026570D0A0000000041542B4346554E3D4D
:1036C000310D0A00415426570D0A00004552524F51
:1036D0005200000000100140B40200206948006858
:1036E000FDF72AFB58B1042167A002F064FC00201A
:1036F0006749088041F288316248FDF7F4FAB0E08A
:103700000B2164A002F057FC42F210715D48FDF7F6
:10371000EAFA0D205E4908801520614908800B20D7
:10372000604908709DE00B215FA002F044FC062078
:103730005749088042F210715248FDF7D4FA15201B
:10374000574908800C20574908708AE06AE07EE0FB
:1037500072E029E015E03AE000E04BE00B2155A0D3
:1037600002F029FC09204A49088042F210714548BC
:10377000FDF7B9FA15204A4908800D20494908701B
:103780006FE00B214EA002F016FC08204049088093
:1037900042F210713B48FDF7A6FA15204049088017
:1037A0000F20404908705CE0102148A002F003FCA3
:1037B0000A203749088042F210713248FDF793FA27
:1037C00015203749088010203649087049E00A2141
:1037D00043A002F0F0FB0E202D49088040F6B831DE
:1037E0002848FDF780FA15202D4908800E202D4924
:1037F000087036E023480068FDF79EFA88B10B2177
:103800003AA002F0D8FB0B202149088042F2107147
:103810001C48FDF768FA1520214908800A20214933
:1038200008701EE017480068FDF786FA18B11D48B9
:1038300000781B49088014E042F210711148FDF72E
:1038400052FA17480088401C1549088009E00D48C5
:103850000068FDF771FA10B10B201149088000E0F3
:1038600000BF00BF10BD10B5FFF73BF8FFF718FB16
:1038700010BD10B5044622464FF480411E4802F0A8
:1038800070FD10BDB402002041540D0A000000007C
:10389000A602002041542B4350494E3F0D0A000020
:1038A000A4020020B802002041542B434D47463F5C
:1038B0000D0A000041542B435343533F0D0A0000AF
:1038C00041542B434D47463D310D0A0041542B4393
:1038D0005343533D2255435332220D0A000000004A
:1038E00041542B435245473F0D0A000041542B439E
:1038F00046554E3D300D0A00000C014001460020A7
:10390000012900D011B9FE4B197000E02620704744
:103910000146FC4A506820F0FF00084350607047A1
:1039200070B5044605E0F748456B05F0450000B169
:1039300000E0F8E700BF042003F079FB20B1042089
:1039400003F07FFB032070BD012003F070FB20B16A
:10395000012003F076FB0120F5E7EA480069A04268
:1039600001D01020EFE740F2FF50E6498863084697
:10397000406908210840C0B2E5E72DE9FC4107464F
:103980000D46002600240020009001900820DE490A
:10399000086010204860402088600020C8604FF414
:1039A00080600861084603F0CBFA1020FFF7B8FFEB
:1039B000044614B12046BDE8FC81D44800880004C8
:1039C000D149086037204860402088600020C860E6
:1039D0004FF480600861084603F0B2FA3720FFF721
:1039E0009FFF04460CB12046E5E74FF0FF30C84981
:1039F000086008204860302088600220C8600020ED
:103A0000086101204861084603F0C3FA0020BE495E
:103A1000086033204860402088600020C8604FF470
:103A200080600861084603F08BFA3320FFF778FFC7
:103A300004460CB12046BEE70CE04FF4001003F042
:103A4000F6FA38B103F0C7FA4DF82600761C022EBC
:103A500000D306E0AB48406B40F22A6108400028E2
:103A6000EBD000BF082003F0E2FA20B1082003F0F9
:103A7000E8FA04209FE7022003F0D9FA20B10220DF
:103A800003F0DFFA022096E7202003F0D0FA20B1FD
:103A9000202003F0D6FA06208DE74FF4007003F0E3
:103AA000C6FA28B14FF4007003F0CBFA072082E782
:103AB00040F2FF5003F0C5FA00980006009901F4A7
:103AC0007F4140EA0120009901F47F0140EA112082
:103AD000009940EA1160686001980006019901F4BC
:103AE0007F4140EA0120019901F47F0140EA112061
:103AF000019940EA1160286020465CE77CB50546E4
:103B0000002400200090019000260DB1022600E064
:103B100000267C48406900F0007008B10E207CBD92
:103B20007A49098888B26946FFF727FF04460CB135
:103B30002046F4E7019800F4802060B373480088C1
:103B400000047149086037204860402088600020E8
:103B5000C8604FF480600861084603F0F1F937202F
:103B6000FFF7DEFE04460CB12046D8E76648066043
:103B7000062065494860402088600020C8604FF4F6
:103B800080600861084603F0DBF90620FFF7C8FEF5
:103B900004462046C3E72520C1E770B5044600254A
:103BA0005C480078032801D1272070BD594800786F
:103BB00038B158480078012803D0564800780228C8
:103BC00018D1022C01D32720EFE7E0B2FFF796FFD0
:103BD00005467DB94B48406820F4C05049494860CB
:103BE00008464068A1B240EAC120464948600846FC
:103BF000406848602846D8E710B50446424804604B
:103C0000072041494860402088600020C8604FF488
:103C100080600861084603F093F90720FFF780FEF3
:103C200010BDF0B50146002000223A4B1B7881F808
:103C30005630364B1B88A1F85430374B1B681A0E90
:103C400093090B70C2F383034B7002F003038B7074
:103C5000314B1B68C3F30742CA702F4B1B88C3F359
:103C600007220A712C4B1A784A715B681A0E1301ED
:103C7000CB80294B5B68C3F30742CB8843EA12131E
:103C8000CB8002F00F030B72234B9B88C3F30722F8
:103C9000D3094B72C2F380138B72C2F34013CB7201
:103CA000C2F300130B7300234B731A4B1B783BB109
:103CB000184B1B78012B03D0164B1B78032B5ED1BE
:103CC00093071B0D0B61144B1A790B6943EA8203AE
:103CD0000B61114B9B681A0E0B6943EA92130B613F
:103CE000C2F3C2030B7502F007034B750A4B9B68C6
:103CF000C3F3074253098B75C2F38203CB750DE002
:103D0000C402002000800140E0320020C0020020F8
:103D1000F4320020BC0200200C33002093075B0F1C
:103D20000B76F74B1B89C3F307220B7E43EAD213B2
:103D30000B760B695B1C0024C1E912340B7E9B1CC3
:103D4000012404FA03F3DC17D1E91256A5FB037C26
:103D500006FB03C305FB0433C1E912730C7A01238C
:103D6000A3400B650024D1E912650B6DA6FB037C13
:103D700005FB03C306FB0433C1E912732EE0E14BDC
:103D80001B78022B2AD1DE4B1A7993069B0A0B6112
:103D9000DB4B9B681A0E0B6943EA02230B61D84B7D
:103DA0009B68C3F307420B6913430B61D44B1B8918
:103DB000C3F307220B695B1C4FF40074A3FB04469A
:103DC0004FF480630025A4FB037C06FB03C304FBC4
:103DD0000533C1E912734FF400730B65C2F380130E
:103DE00001F8193F93065B0E4B70C54B1A7A4B785E
:103DF00043EAD2134B7002F07F038B70C04BDB6839
:103E00001A0ED309CB70C2F341130B71C2F38203B4
:103E10004B7193071B0F8B71B94BDB68C3F30742E0
:103E20008B7943EA92138B71C2F34013CB71002359
:103E30000B7202F001034B72B14B9B89C3F3072253
:103E4000D3098B72C2F38013CB72C2F340130B738E
:103E5000C2F300134B73C2F381038B7302F00303AD
:103E6000CB73A74B1A7B53080B7401234B74A64BDF
:103E70001B681A0ECA741939A34B1B68C3F3074297
:103E80001402CC85A04B1B88C3F30722CB8D1343B0
:103E9000CB859D4B1A7814060C635B681A0E0B6B6E
:103EA00043EA02440C63984B5B68C3F307420B6B15
:103EB00043EA02240C63944B9B88C3F307220B6BE9
:103EC00013430B63904B1A7934235A548E4B9B68DF
:103ED0001A0E35235A548C4B9B68C3F307421406C1
:103EE0008C63894B1B89C3F307228B6B43EA024423
:103EF0008C63854B1A7A8B6B43EA02248C63824B6A
:103F0000DB681A0E8B6B13438B637F4BDB68C3F349
:103F100007423C235B5C43EA12143C235C541307C6
:103F20001C0DCC87784B9B89C3F30722CB8F13439F
:103F3000CB87754B1A7B540840235C5401244123E2
:103F40005C54F0BD70B500264FF4803505E06F4835
:103F5000446B04F0450000B103E0281EA5F1010503
:103F6000F5D100BF15B104F0040028B103260420E8
:103F700003F067F8304670BD012003F058F818B11F
:103F80000126012003F05DF840F2FF5003F059F8DC
:103F90003046F0E72DE9F04105460E464FF00008A7
:103FA00005E05A48476B07F0450000B100E0F8E72C
:103FB00000BF042003F03BF828B1042003F041F8CF
:103FC0000320BDE8F081012003F031F820B1012089
:103FD00003F037F80120F4E74C480069A84201D00B
:103FE0001020EEE740F2FF5003F02BF847484469F9
:103FF00004F4604018B9200C30804046E1E704F436
:10400000005008B11320DCE704F4804008B1102010
:10401000D7E704F4004008B10F20D2E74046D0E7CC
:1040200038B500240120009002F075FF08B9252062
:1040300038BD34480078042821D000203449086075
:1040400002204860C02088600020C8604FF4806073
:104050000861084602F074FFFFF774FF04460CB1D4
:104060002046E5E7294840692749086027488069D4
:1040700048602648C06988602448006AC8602148B2
:10408000007858B11F480078012807D01D480078F3
:10409000062803D01B480078022816D100201C49AE
:1040A000086003204860402088600020C8604FF40A
:1040B00080600861084602F043FF69460320FFF76D
:1040C00069FF04460CB12046B2E70E480078032889
:1040D00020D1BDF8000000040D49086003204860AD
:1040E000402088600020C8604FF480600861084666
:1040F00002F026FFFFF726FF04465CB1204697E753
:104100000C330020BC0200201C3300200080014042
:10411000E0320020FE480078042827D0BDF80000D7
:10412000FC490860BDF800000004FB490860092054
:104130004860C02088600020C8604FF4806008613B
:10414000084602F0FDFEFFF7FDFE04460CB12046D6
:104150006EE7F2484069F2490860F04880694860BB
:10416000EE48C0698860ED48006AC86000205FE7DB
:1041700010B505E0E948446B04F0450000B100E0EB
:10418000F8E700BF042002F052FF20B1042002F043
:1041900058FF032010BD40F2FF5002F052FF0020F4
:1041A000F8E770B500264FF4803505E0DB48446B36
:1041B00004F0450000B103E0281EA5F10105F5D18A
:1041C00000BF15B104F0040028B10326042002F05A
:1041D00038FF304670BD04F0400018B10026402082
:1041E00002F02FFF3046F5E770B500254FF480341C
:1041F00004E0802002F01BFF00B103E0201EA4F1C8
:104200000104F6D100BF0CB9032070BD40F2FF508D
:1042100002F017FF2846F8E72DE9F04700270024B1
:1042200000260025A046A146B220BE490875002000
:10423000086048608860C8600861084602F040FE77
:10424000032002F05DFE012002F057FE00BF12E0E5
:104250000020B149086048608860C8604FF4806001
:104260000861084602F06CFEFFF7BEFF044604B981
:1042700003E0781CC7B24A2FEADB00BF14B1204626
:10428000BDE8F0874FF4D570A34908600820486066
:10429000402088600020C8604FF4806008610846B4
:1042A00002F04EFEFFF77DFF044624B90120984935
:1042B00008704FF080490020974908603720486017
:1042C000402088600020C8604FF480600861084684
:1042D00002F036FE3720FFF723FB0446002C4BD1BB
:1042E00034E000208C490860372048604020886016
:1042F0000020C8604FF480600861084602F020FE8C
:104300003720FFF70DFB04460CB12046B8E786487E
:1043100049EA000080490860292048604020886000
:104320000020C8604FF480600861084602F008FE73
:10433000FFF71EFF04460CB12046A1E77748466907
:10434000012080EAD67080F001086D1CB8F1000FE2
:1043500003D14FF6FF708542C3D34FF6FF708542FD
:1043600002D31B2420468BE706F08040061E32D085
:104370000220674908702EE01CE06C48664908601E
:1043800001204860402088600020C8604FF48060B1
:104390000861084602F0D4FDFFF7EAFE04460CB1BE
:1043A00020466DE75D484669012080EAD67080F0BE
:1043B00001086D1CB8F1000F03D14FF6FF70854264
:1043C000DBD34FF6FF70854202D31B24204657E70C
:1043D00003204F490870204652E77CB50025002491
:1043E0000121302002F0C8F9012140F2024002F020
:1043F000B6F94FF4F850ADF8000018208DF803001E
:1044000003208DF802006946494801F0F9FE0420B6
:10441000ADF8000018208DF8030003208DF802008D
:104420006946444801F0ECFE8020ADF800004820C9
:104430008DF8030003208DF8020069463C4801F026
:10444000DFFE02F02FFD31208DF8040000208DF8F2
:1044500005008DF8060001208DF8070001A8FCF783
:104460004AFDFFF7D9FE044614B9FFF7D9FD04460B
:104470001CB93148FFF7D5FB044634B92E49B1F8D1
:1044800054100804FFF7B8FB04461CB90120FFF7DD
:1044900084FB04461CB11E480078032812D126482C
:1044A00090F8560020B1244890F85600012801D118
:1044B0000A2500E004252846FFF72AFA0020FFF726
:1044C0001DFA044620467CBD10B58021184801F035
:1044D0002AFF012801D0012010BD0020FCE710B503
:1044E000002002F00DFD002010BD70B58CB0064616
:1044F0000C4615460121022002F031F90F4802F066
:10450000A7FB00210D4802F070FC0448803017E042
:10451000BC020020C0020020E032002000800140E8
:104520000C330020C8320020000010800080FF8083
:1045300000100140001401403033002044040240C8
:10454000019002960395A008049000200590802019
:1045500006908000079080000890002009904FF49A
:1045600000500A9000200B9001A9F64802F012FCBE
:104570000021F44802F039FC0CB070BD0146002067
:1045800002E04910421CD0B20129FAD170472DE94E
:10459000F84F8146174698460A9C4FF0000AD346CA
:1045A0004D464FF0FF36B9F1000F02D12620BDE88D
:1045B000F88F0020E449C862E4480078022805D159
:1045C0000402780A40EAC8574FEA68280020E04908
:1045D00088604860401E0860012048610020C86073
:1045E0000861084602F0D5FCD748406900F0007029
:1045F00008B10E20DBE7002C21DDB4F5006F1EDCD6
:10460000601E2040D8B92046FFF7B8FF0090D1487F
:1046100004601020CF494860402088600020C860B6
:104620004FF480600861084602F08AFC1020FFF712
:1046300077F98246BAF1000F03D05046B7E726203B
:10464000B5E700980001C2498860084644604FF011
:10465000FF300860012048610220C8600020086126
:10466000084602F096FCBB4807601120B949486033
:10467000402088600020C8604FF4806008610846D0
:1046800002F05EFC1120FFF74BF98246BAF1000FF1
:1046900001D050468BE7B048007800285AD1FCF78B
:1046A000FDFB18E04FF4004002F0C1FC78B14FF080
:1046B000000B06E0A4488030006845F82B000BF1A1
:1046C000010BBBF1080FF5D32035A44E03E00EB962
:1046D00004206CE7761E9C48406B40F22A6108403B
:1046E0000028DFD0082002F0A2FC20B1082002F050
:1046F000A8FC04205BE7022002F099FC20B1022014
:1047000002F09FFC022052E7202002F090FC20B132
:10471000202002F096FC062049E74FF4007002F0DA
:1047200086FC28B14FF4007002F08BFC07203EE7B6
:1047300003E002F050FC28602D1D4FF4001002F041
:1047400076FC0028F5D1FCF7ABFB40F2FF5002F0FD
:1047500078FC32E08048007801282ED100222146E2
:104760004846FFF7C2FE00207D4908707D49087069
:104770007D4908707448C06B40F22A310843724981
:10478000C863012002F0D9FB00E0761E6D48443872
:10479000006800F4005038B97348007820B97048B8
:1047A000007808B9002EF0D10EB90420FFE66C485D
:1047B000007810B16A4890F800A05046F7E62DE95D
:1047C000FF5F17469846DDE90E464FF00009CA46DE
:1047D0004FF0FF3565490098086000205A49C862CB
:1047E0005A480078022805D10402780A40EAC857DE
:1047F0004FEA68280020564988604860401E0860DB
:10480000012048610020C8600861084602F0C1FB31
:104810004D48406900F0007018B10E2004B0BDE8AA
:10482000F09F002C21DDB4F5006F1EDC601E2040DF
:10483000D8B92046FFF7A2FE834646480460102000
:1048400044494860402088600020C8604FF4806080
:104850000861084602F074FB1020FFF761F88146FA
:10486000B9F1000F03D04846D8E72620D6E7012E3D
:1048700067D906FB04F0B0F1007F01D32620CDE715
:104880004FEA0B103249886006FB04F048604FF095
:10489000FF300860012048610220C86000200861E4
:1048A000084602F076FB2B48076012202949486031
:1048B000402088600020C8604FF48060086108468E
:1048C00002F03EFB1220FFF72BF88146B9F1000FF2
:1048D00001D04846A2E72048007800287ED1FCF7A6
:1048E000DDFA1EE04FF4004002F0A1FBA8B14FF04A
:1048F000000A08E01448803000681C49096841F843
:104900002A000AF1010ABAF1080FF3D31748006828
:10491000203016490860114D03E00DB904207DE7F1
:104920006D1E0948406B40F22A3108400028D9D05A
:10493000082002F07CFBD8B1082002F082FB0420A2
:104940006CE7ADE04404024000800140BC0200205E
:10495000F4320020E0320020C4020020FFFF7F007C
:10496000C6020020C5020020C7020020C8020020A5
:10497000022002F05CFB20B1022002F062FB022068
:104980004CE7202002F053FB20B1202002F059FB1D
:10499000062043E74FF4007002F049FB28B14FF4C2
:1049A000007002F04EFB072038E709E002F013FB2D
:1049B000F94909680860F8480068001DF649086070
:1049C0004FF4001002F033FB0028EFD14FF4807059
:1049D00002F02DFB20B3F148007800E027E038B169
:1049E000EE480078012803D0EC480078022817D15F
:1049F0000020EB4908600C204860402088600020BF
:104A0000C8604FF480600861084602F099FA0C20F3
:104A1000FEF786FF8146B9F1000F01D04846FDE65A
:104A2000FCF73EFA40F2FF5002F00BFB38E0DD48A5
:104A30000078012834D106FB04F100220098FFF72A
:104A400054FD0020D84908700120D8490870002082
:104A5000D7490870D748C06B40F22A310843D5497E
:104A6000C8630846C06A40F00800C86200E06D1ED6
:104A7000D148006800F4005008B9002DF7D10DB9F5
:104A80000420CBE600BFCA48007818B9C6480078B1
:104A90000028F8D0C448007810B1C34890F80090BE
:104AA0004846BBE61CB50446002001900090C34870
:104AB00000880004BA4908600D20486040208860E2
:104AC0000020C8604FF480600861084602F038FAA0
:104AD000B848406B009002E0B648406B00900098E8
:104AE00000F045000028F7D0012002F0A0FA20B124
:104AF000012002F0A6FA01201CBD042002F097FA62
:104B000020B1042002F09DFA0320F5E7A9480069CE
:104B10000D2801D01020EFE740F2FF5002F091FA8B
:104B2000A448406901900198C0F343202070002000
:104B3000E2E72DE9FF5F86B017469846149D0026F0
:104B40000020059004900024814603908246029044
:104B50000195DDF818B0DDF818B0BBF1000F03D1F6
:104B600026200AB0BDE8F09F00209249C86294490F
:104B700088604860401E0860012048610020C860CD
:104B80000861084602F005FA8A48406900F00070A2
:104B900008B10E20E5E781480078022805D105021A
:104BA000780A40EAC8574FEA6828002D1FDDB5F59E
:104BB000006F1CDC681E2840C8B92846FFF7DEFCE1
:104BC000059077480560102075494860402088604E
:104BD0000020C8604FF480600861084602F0B0F918
:104BE0001020FEF79DFE06461EB13046B9E726208E
:104BF000B7E7724800880004694908600D204860E2
:104C0000402088600020C8604FF48060086108463A
:104C100002F096F90D20FEF783FE06460EB13046EF
:104C20009FE76448406903904FF0FF341BE0641E27
:104C30006248008800045A4908600D2048604020FE
:104C400088600020C8604FF480600861084602F068
:104C500077F90D20FEF764FE06460EB1304680E778
:104C6000544840690390039800F4807008B9002C00
:104C7000DDD10CB9292074E749480760182048495C
:104C80004860402088600020C8604FF48060086160
:104C9000084602F055F91820FEF742FE06460EB10E
:104CA00030465EE7002041490870059800014449FC
:104CB0008860084645604FF0FF3008600120486179
:104CC0000020C8600861084602F063F94FF0FF3425
:104CD00034480078002875D1FCF7E0F843E04FF441
:104CE000804002F0A4F9C8B30198A0EB0900202885
:104CF00021D20198A0EB090000F0030020B901982F
:104D0000A0EB0900800804E00198A0EB09008008EE
:104D1000401C02904FF0000A09E0DBF8000002F0AE
:104D20005EF90AF1010A0BF1040B09F1040902987A
:104D30008245F2D30FE04FF0000A05E05BF82A004D
:104D400002F04DF90AF1010ABAF1080FF6D30BF19E
:104D5000200B09F120096FF0404404E0FFE70CB993
:104D60000420FEE6641E1348406B40F21A610840BE
:104D70000028B4D0082002F05AF920B1082002F02F
:104D800060F90420EDE6022002F051F9D8B10220CA
:104D900002F057F90220E4E6C8020020BC0200201D
:104DA000E0320020C4020020C6020020C50200201C
:104DB000C70200200080014000040240C002002021
:104DC000F43200201AE0102002F031F920B1102056
:104DD00002F037F90520C4E64FF4007002F027F91D
:104DE00028B14FF4007002F02CF90720B9E6FCF767
:104DF00057F840F2FF50FC4988633EE0FB480078DA
:104E000001283AD1102229460698FFF76EFB0020B0
:104E1000F7490870F7490870F7490870F248C06B05
:104E200040F21A310843F049C8630846C06A40F0AE
:104E30000800C86200E0641EF048006800F40050FA
:104E400008B9002CF7D11CB9FFF7C7FA042088E68F
:104E50004FF0FF3400E0641EE748007820B9E448D2
:104E6000007808B9002CF6D10CB9042079E6E048A6
:104E7000007810B1DE48007873E640F2FF5002F08F
:104E8000E0F804A8FFF70EFE064603E004A8FFF7CB
:104E900009FE06463EB99DF810000728F6D09DF899
:104EA00010000628F2D030465BE62DE9FF5F84B0A3
:104EB000DDE912470026002003900290002580467D
:104EC0008146019007FB04FBDDF810A0DDF810A07F
:104ED000BAF1000F03D1262008B0BDE8F09F0020F2
:104EE000C149C862C64988604860401E0860012008
:104EF00048610020C8600861084602F04AF8BA48D4
:104F0000406900F0007008B10E20E5E7BD48007868
:104F1000022808D10402DDE90601400A40EAC15036
:104F20004912CDE90601002C1FDDB4F5006F1CDC31
:104F3000601E2040C8B92046FFF720FB0390B2480E
:104F400004601020B0494860402088600020C8609C
:104F50004FF480600861084601F0F2FF1020FEF770
:104F6000DFFC06461EB13046B6E72620B4E7012F27
:104F70006FD907FB04F0B0F1007F01D32620ABE727
:104F8000A048007838B19F480078012803D09D4898
:104F9000007802282DD19D48008800049A490860B5
:104FA00037204860402088600020C8604FF480604F
:104FB0000861084601F0C4FF3720FEF7B1FC064641
:104FC0000EB1304688E79048076017208E49486048
:104FD000402088600020C8604FF480600861084667
:104FE00001F0AEFF1720FEF79BFC06460EB13046DF
:104FF00072E785490698086019204860402088605B
:105000000020C8604FF480600861084601F098FFF6
:105010001920FEF785FC06460EB130465CE7039882
:1050200000017749886007FB04F048604FF0FF30CB
:105030000860012048610020C8600861084601F04E
:10504000A8FF6A480078002871D1451EFBF726FFAB
:1050500040E0F2E06448406B00F48040A8B3ABEB62
:10506000080020281ED2ABEB080000F0030018B99E
:10507000ABEB0800800803E0ABEB08008008401CA5
:1050800001904FF0000909E0DAF8000001F0A7FFF5
:1050900009F101090AF1040A08F10408019881459F
:1050A000F2D30FE04FF0000905E05AF8290001F0B3
:1050B00096FF09F10109B9F1080FF6D30AF1200AA8
:1050C00008F120086FF0404504E0FFE70DB9042027
:1050D00002E76D1E4448406B40F21A310840002838
:1050E000B8D0082001F0A3FF20B1082001F0A9FFEB
:1050F0000420F1E6022001F09AFF20B1022001F025
:10510000A0FF0220E8E6102001F091FF20B110205E
:1051100001F097FF0520DFE64FF4007001F087FFF4
:1051200030B14FF4007001F08CFF0720D4E62CE082
:105130004FF4807001F07BFF00B33248007838B143
:1051400030480078012803D02E480078022815D175
:1051500000202D4908600C20486040208860002015
:10516000C8604FF480600861084601F0E9FE0C2039
:10517000FEF7D6FB06460EB13046ADE6FBF790FED5
:1051800040F2FF5001F05DFF57E018480078012819
:1051900053D107FB04F110220498FFF7A6F9002071
:1051A0001349087001201349087000201249087043
:1051B0000D48C06B40F21A3108430B49C8630846DA
:1051C000C06A40F00800C8624FF0FF3500E06D1E75
:1051D0000A48006800F4005008B9002DF7D1BDB9A5
:1051E000FFF7FBF8042077E600800140C4020020AE
:1051F000C6020020C5020020C702002000040240B1
:10520000F4320020BC020020E0320020C002002066
:105210004FF0FF3500E06D1EC248007820B9C2484B
:10522000007808B9002DF6D10DB9042054E6BE4827
:10523000007810B1BC4800784EE640F2FF5001F013
:1052400000FF02A8FFF72EFC064603E002A8FFF7C6
:1052500029FC06463EB99DF808000728F6D09DF8BF
:1052600008000628F2D0304636E610B5AF48406B4D
:1052700000F4807070B3AE480078012814D100208B
:10528000AC4908600C204860402088600020C8605D
:105290004FF480600861084601F052FE0C20FEF7D2
:1052A0003FFBA149087002E000209F4908709F4819
:1052B000806B40F480709D4988630846C06B4CF257
:1052C0003A3188439949C863012096490870964845
:1052D000007810BD022001F0AAFE68B1022001F0A2
:1052E000B0FE9248C06B4CF23A3188438F49C86394
:1052F00002208D490870ECE7082001F098FE68B1A3
:10530000082001F09EFE8948C06B4CF23A31884378
:105310008649C863042084490870DAE7202001F038
:1053200086FE68B1202001F08CFE8048C06B4CF2F4
:105330003A3188437D49C86306207B490870C8E735
:10534000102001F074FE68B1102001F07AFE774859
:10535000C06B4CF23A3188437449C86305207249E6
:105360000870B6E74FF4007001F061FE70B14FF4C1
:10537000007001F066FE6D48C06B4CF23A31884314
:105380006A49C863072068490870A2E70020A0E7BF
:1053900010B5FFF76AFF10BD70B50446002514B9BB
:1053A0002625284670BD64480088000461490860CD
:1053B0000D204860402088600020C8604FF4806065
:1053C0000861084601F0BCFD0D20FEF7A9FA05466C
:1053D0000DB12846E6E75548406920602846E1E7D8
:1053E00008B5002000906846FFF7D6FF08B1FF20FF
:1053F00008BD0098C0F34320FAE72DE9FE4F83462D
:105400000C46914600200290002625462C4670024C
:1054100040EAD5566D020BF00300F0B14FF0000AE0
:1054200018E04FF4007000904FEA4A20471946EB0D
:10543000E0733A464148FFF7AAF802904FF4007231
:105440003E49584606F060F90BF5007B0AF1010071
:1054500000F0FF0ACA45E4DB16E0B9F1010F09D1FB
:105460004FF400702A46334600905846FFF78FF8F5
:10547000029009E04FF400702A463346CDE9000956
:105480005846FFF79CF902900298BDE8FE8F2DE97F
:10549000FE4F81460C46924600200290002625468B
:1054A0002C46700240EAD5566D0209F00300F0B1B7
:1054B0004FF0000B18E04FF4007249461F4806F009
:1054C00023F94FF4007000904FEA4B20471946EB48
:1054D000E0733A461948FFF72CFB029009F5007972
:1054E0000BF1010000F0FF0BD345E4DB16E0BAF14D
:1054F000010F09D14FF400702A4633460090484608
:10550000FFF717FB029009E04FF400702A4633467C
:10551000CDE9000A4846FFF7C8FC02900298BDE8B2
:10552000FE8F0000C7020020C6020020008001405C
:10553000C5020020E0320020C00200208833002095
:10554000F0B58DB004463022FC4901A806F0DCF825
:105550006069451E642195FBF1F12846EA1705EBC9
:105560009272C1EBA2014FF4C87295FBF2F28F1850
:105570006069C11700EB91718910A0EB810191B9AD
:105580006422616991FBF2F302FB131131B99200BD
:10559000616991FBF2F302FB131121B92169022920
:1055A00001DD012600E0002640F26D1005FB0071D0
:1055B0002069401E01AA52F820000844E16808440E
:1055C0000644072096FBF0F100FB1160A0610DB0CE
:1055D000F0BD2DE9F04107460C46D948B7FBF0F67F
:1055E000B7FBF0F100FB11784FF4616098FBF0F02D
:1055F000A0604FF4616098FBF0F100FB11803C214A
:1056000090FBF1F060604FF4616098FBF0F100FBFB
:1056100011803C2190FBF1F201FB120020604FF45D
:10562000FA6509E005F0030010B94FF4B77001E026
:1056300040F26D10361A6D1C05F0030010B94FF4DE
:10564000B77001E040F26D10B042EBDD656160695A
:10565000C11700EB91718910A0EB810111B91D20D8
:10566000B8494860012505E0681EB64951F8200098
:10567000361A6D1C681EB34951F82000B042F3DDA4
:105680001C2048602561701CE0602046FFF758FF31
:10569000BDE8F08110B501214FF0C05001F079F85C
:1056A000012001F056FD01F0E7FC012000F0D1FFE0
:1056B00000BF412000F035FF0028FAD04FF4807081
:1056C00000F0E3FF012000F0E6FF01F002FE01F030
:1056D000F7FD0121084601F097FD01F0F1FD47F6C5
:1056E000FF7001F0C7FD01F0EBFD10BD08B54FF4F0
:1056F000C060FBF7FBFB03208DF8000001208DF854
:1057000001008DF802008DF803006846FBF7F3FBFB
:1057100008BD10B5FFF7EAFF042001F0E2FC4AF2F1
:10572000A551884207D0FFF7B5FF4AF2A5510420E2
:1057300001F0CBFC07E001F0CCFD0121084601F0AF
:1057400063FD01F0BDFD01F07FFD04467E49FFF7DA
:1057500040FF10BD0FB40498801E0490002805DCA3
:1057600004980C3004900598401E0590642205981A
:1057700090FBF2F00599CA1701EB9272C0EBA20000
:105780004FF4C87391FBF3F2024440F26F13049894
:1057900058430C2390FBF3F01044039A024440F268
:1057A0006D1301FB0320694A801A00EB4000029A46
:1057B00002EBC000C0EB0010019A02EB8000C0EBCE
:1057C0000010009A02EB800004B070470146CA172F
:1057D00001EB92729210A1EB820292B9642091FBCC
:1057E000F0F200FB121050B94FF4C87091FBF0F2C8
:1057F00000FB121008B9012070470020FCE70120CF
:10580000FAE70020F8E770B50446002540F2B271CF
:105810006069884204DB40F633016069884201DD3B
:10582000012070BD40F2B2760AE03046FFF7CEFFAD
:1058300010B14748054401E046480544701C86B253
:105840006069B042F1DC2069401E2061002611E051
:105850004148805D40F2A321484305EBC015A18A71
:1058600088B2FFF7B3FF18B1012E01D134480544C7
:10587000701C86B22069B042EADC40F2A321E068E5
:10588000484305EBC015A068C0EB4011C1EB0020F8
:1058900005EB00156068C0EB001005EB8005206883
:1058A000054401214FF0C05000F073FF012001F0CA
:1058B00050FC284601F0D1FC01F002FD4AF2A5514E
:1058C000042001F002FC0020ABE710B501460020E7
:1058D000E1B91D4A5269642392FBF3F403FB1422DD
:1058E00040EA8260184A128A40EA8250164A928937
:1058F00040EA4240144A926840EA0230124A526832
:1059000040EA8210104A1268104315E00A786423B6
:1059100092FBF3F403FB142240EA82604A7840EAE7
:1059200082508A7840EA4240CA7840EA02300A79D6
:1059300040EA82104A79104310BD000014BE0008EE
:1059400080510100CC0200208835002058250B0032
:105950000085E2018033E10108BE000870B504460D
:105960001021FC4800F0FBFC0025002621E0680621
:10597000050E04F08000802804D12021F54800F0B5
:10598000ECFC03E02021F34800F0E9FC6006040E83
:105990001021F04800F0E1FC0821EE4800F0C3FCC3
:1059A00008B145F001051021EA4800F0D8FC701C50
:1059B000C6B2082EDBDB284670BD70B505460C4626
:1059C00016460421E34800F0CAFC0320FFF7C6FF97
:1059D000C4F30740FFF7C2FFC4F30720FFF7BEFF81
:1059E000E0B2FFF7BBFF04E00020FFF7B7FF28702D
:1059F0006D1C301EA6F101018EB2F5D10421D548EF
:105A000000F0ABFC70BD70B586B0044600250026E2
:105A10001BE0182221466846FFF7CFFF9DF80000E3
:105A2000FF280CD19DF80100FF2808D19DF8020045
:105A3000FF2804D19DF80300FF2800D107E006F1FC
:105A4000180086B21834681CC5B2642DE1DB00BFB3
:105A5000304606B070BD10B500240421BD4800F0EA
:105A60007EFC0520FFF77AFF00BF0020FFF776FFDE
:105A7000044604F001000028F7D10421B54800F0E5
:105A80006CFC10BD10B50421B24800F068FC062083
:105A9000FFF764FF0421AF4800F05FFC10BD10B5B4
:105AA000FFF7F0FF0421AB4800F059FCC720FFF7D7
:105AB00055FF0421A74800F050FCFFF7CCFF10BDB4
:105AC00008B50121080200F057FE1020ADF80000D3
:105AD00001208DF8020010208DF8030069469D48D2
